{
  "contractName": "AlphaKlimaRedeemUpgradeable",
  "abi": [
    {
      "anonymous": false,
      "inputs": [
        {
          "indexed": false,
          "internalType": "address",
          "name": "tokenOwner",
          "type": "address"
        },
        {
          "indexed": false,
          "internalType": "uint256",
          "name": "amount",
          "type": "uint256"
        }
      ],
      "name": "klimaRedeemed",
      "type": "event"
    },
    {
      "inputs": [],
      "name": "KLIMA",
      "outputs": [
        {
          "internalType": "contract IERC20Upgradeable",
          "name": "",
          "type": "address"
        }
      ],
      "stateMutability": "view",
      "type": "function"
    },
    {
      "inputs": [],
      "name": "aKLIMA",
      "outputs": [
        {
          "internalType": "contract IERC20Upgradeable",
          "name": "",
          "type": "address"
        }
      ],
      "stateMutability": "view",
      "type": "function"
    },
    {
      "inputs": [
        {
          "internalType": "address",
          "name": "forwarder",
          "type": "address"
        }
      ],
      "name": "isTrustedForwarder",
      "outputs": [
        {
          "internalType": "bool",
          "name": "",
          "type": "bool"
        }
      ],
      "stateMutability": "view",
      "type": "function"
    },
    {
      "inputs": [],
      "name": "owner",
      "outputs": [
        {
          "internalType": "address",
          "name": "",
          "type": "address"
        }
      ],
      "stateMutability": "view",
      "type": "function"
    },
    {
      "inputs": [
        {
          "internalType": "address",
          "name": "_KLIMA",
          "type": "address"
        },
        {
          "internalType": "address",
          "name": "_aKLIMA",
          "type": "address"
        },
        {
          "internalType": "address",
          "name": "__trustedForwarder",
          "type": "address"
        }
      ],
      "name": "initialize",
      "outputs": [],
      "stateMutability": "nonpayable",
      "type": "function"
    },
    {
      "inputs": [
        {
          "internalType": "uint256",
          "name": "amount",
          "type": "uint256"
        }
      ],
      "name": "migrate",
      "outputs": [],
      "stateMutability": "nonpayable",
      "type": "function"
    },
    {
      "inputs": [],
      "name": "withdraw",
      "outputs": [],
      "stateMutability": "nonpayable",
      "type": "function"
    },
    {
      "inputs": [
        {
          "internalType": "address",
          "name": "newForwarder",
          "type": "address"
        }
      ],
      "name": "setTrustedForwarder",
      "outputs": [],
      "stateMutability": "nonpayable",
      "type": "function"
    }
  ],
  "bytecode": "0x608060405234801561001057600080fd5b5061095e806100206000396000f3fe608060405234801561001057600080fd5b50600436106100885760003560e01c8063c0c53b8b1161005b578063c0c53b8b1461010c578063d043cb071461011f578063da74222814610132578063e3ed12a01461014557600080fd5b80633ccfd60b1461008d578063454b060814610097578063572b6c05146100aa5780638da5cb5b146100e1575b600080fd5b610095610158565b005b6100956100a536600461083c565b6102b7565b6100cc6100b83660046107c0565b6033546001600160a01b0391821691161490565b60405190151581526020015b60405180910390f35b6068546100f4906001600160a01b031681565b6040516001600160a01b0390911681526020016100d8565b61009561011a3660046107da565b61053e565b6067546100f4906001600160a01b031681565b6100956101403660046107c0565b6105e8565b6066546100f4906001600160a01b031681565b6068546001600160a01b031661016c610644565b6001600160a01b03161461019b5760405162461bcd60e51b8152600401610192906108ba565b60405180910390fd5b6066546040516370a0823160e01b81523060048201526000916001600160a01b0316906370a082319060240160206040518083038186803b1580156101df57600080fd5b505afa1580156101f3573d6000803e3d6000fd5b505050506040513d601f19601f820116820180604052508101906102179190610854565b6066549091506001600160a01b031663a9059cbb610233610644565b6040516001600160e01b031960e084901b1681526001600160a01b03909116600482015260248101849052604401602060405180830381600087803b15801561027b57600080fd5b505af115801561028f573d6000803e3d6000fd5b505050506040513d601f19601f820116820180604052508101906102b3919061081c565b5050565b60675481906001600160a01b03166370a082316102d2610644565b6040516001600160e01b031960e084901b1681526001600160a01b03909116600482015260240160206040518083038186803b15801561031157600080fd5b505afa158015610325573d6000803e3d6000fd5b505050506040513d601f19601f820116820180604052508101906103499190610854565b10156103ab5760405162461bcd60e51b815260206004820152602b60248201527f4572726f723a2043616e6e6f742052656465656d204d6f7265207468616e205560448201526a7365722042616c616e636560a81b6064820152608401610192565b6067546001600160a01b03166323b872dd6103c4610644565b6040516001600160e01b031960e084901b1681526001600160a01b03909116600482015230602482015260448101849052606401602060405180830381600087803b15801561041257600080fd5b505af1158015610426573d6000803e3d6000fd5b505050506040513d601f19601f8201168201806040525081019061044a919061081c565b506066546001600160a01b031663a9059cbb610464610644565b61047284633b9aca0061066c565b6040516001600160e01b031960e085901b1681526001600160a01b0390921660048301526024820152604401602060405180830381600087803b1580156104b857600080fd5b505af11580156104cc573d6000803e3d6000fd5b505050506040513d601f19601f820116820180604052508101906104f0919061081c565b507f321ba8021644b4d5c851f05f2763d5b0f3edc7958c0ef99612f5158b58a905f461051a610644565b604080516001600160a01b039092168252602082018490520160405180910390a150565b600054610100900460ff1680610557575060005460ff16155b6105735760405162461bcd60e51b81526004016101929061086c565b600054610100900460ff16158015610595576000805461ffff19166101011790555b61059e8261067f565b6105a88484610706565b6105b0610644565b606880546001600160a01b0319166001600160a01b039290921691909117905580156105e2576000805461ff00191690555b50505050565b6068546001600160a01b03166105fc610644565b6001600160a01b0316146106225760405162461bcd60e51b8152600401610192906108ba565b603380546001600160a01b0319166001600160a01b0392909216919091179055565b6033546000906001600160a01b0316331415610667575060131936013560601c90565b503390565b60006106788284610908565b9392505050565b600054610100900460ff1680610698575060005460ff16155b6106b45760405162461bcd60e51b81526004016101929061086c565b600054610100900460ff161580156106d6576000805461ffff19166101011790555b603380546001600160a01b0319166001600160a01b03841617905580156102b3576000805461ff00191690555050565b600054610100900460ff168061071f575060005460ff16155b61073b5760405162461bcd60e51b81526004016101929061086c565b600054610100900460ff1615801561075d576000805461ffff19166101011790555b606680546001600160a01b038086166001600160a01b0319928316179092556067805492851692909116919091179055801561079f576000805461ff00191690555b505050565b80356001600160a01b03811681146107bb57600080fd5b919050565b6000602082840312156107d1578081fd5b610678826107a4565b6000806000606084860312156107ee578182fd5b6107f7846107a4565b9250610805602085016107a4565b9150610813604085016107a4565b90509250925092565b60006020828403121561082d578081fd5b81518015158114610678578182fd5b60006020828403121561084d578081fd5b5035919050565b600060208284031215610865578081fd5b5051919050565b6020808252602e908201527f496e697469616c697a61626c653a20636f6e747261637420697320616c72656160408201526d191e481a5b9a5d1a585b1a5e995960921b606082015260800190565b6020808252602e908201527f4f776e65723a2063616c6c657220646f6573206e6f742068617665207468652060408201526d746865206f776e657220726f6c6560901b606082015260800190565b60008261092357634e487b7160e01b81526012600452602481fd5b50049056fea26469706673582212204324d44711341bebb0b606991027691aafef0e05996c0cf2d006d30903126c5364736f6c63430008040033",
  "immutableReferences": {},
  "source": "// SPDX-License-Identifier: MIT\r\npragma solidity ^0.8.4;\r\n\r\nimport \"@openzeppelin/contracts-upgradeable/utils/math/SafeMathUpgradeable.sol\";\r\nimport \"@openzeppelin/contracts-upgradeable/metatx/ERC2771ContextUpgradeable.sol\";\r\nimport \"@openzeppelin/contracts-upgradeable/token/ERC20/IERC20Upgradeable.sol\";\r\n\r\n\r\n\r\ncontract AlphaKlimaRedeemUpgradeable is ERC2771ContextUpgradeable  {\r\n    using SafeMathUpgradeable for uint256;\r\n\r\n    IERC20Upgradeable public KLIMA;\r\n    IERC20Upgradeable public aKLIMA;\r\n\r\n    address public owner;\r\n\r\n    modifier onlyOwner() {\r\n        require(_msgSender() == owner, \"Owner: caller does not have the the owner role\");\r\n        _;\r\n    }\r\n\r\n    event klimaRedeemed(address tokenOwner, uint256 amount);\r\n\r\n    function initialize (\r\n        address _KLIMA,\r\n        address _aKLIMA,\r\n        address __trustedForwarder\r\n    ) public initializer {\r\n        __ERC2771Context_init_unchained(__trustedForwarder);\r\n        __AlphaKlimaRedeemUpgradeable_init(_KLIMA, _aKLIMA);\r\n        owner = _msgSender();\r\n    }\r\n\r\n    function __AlphaKlimaRedeemUpgradeable_init(address _KLIMA,\r\n        address _aKLIMA) internal initializer {\r\n        KLIMA = IERC20Upgradeable(_KLIMA);\r\n        aKLIMA = IERC20Upgradeable(_aKLIMA);\r\n    }\r\n\r\n    function migrate(uint256 amount) public {\r\n        require(\r\n            aKLIMA.balanceOf(_msgSender()) >= amount,\r\n            \"Error: Cannot Redeem More than User Balance\"\r\n        );\r\n\r\n        aKLIMA.transferFrom(_msgSender(), address(this), amount);\r\n        KLIMA.transfer(_msgSender(), amount.div(1e9));\r\n\r\n        emit klimaRedeemed(_msgSender(), amount);\r\n\r\n    }\r\n\r\n    function withdraw() external onlyOwner {\r\n        uint256 amount = KLIMA.balanceOf(address(this));\r\n\r\n        KLIMA.transfer(_msgSender(), amount);\r\n    }\r\n    function setTrustedForwarder(address newForwarder) public onlyOwner {\r\n        _trustedForwarder = newForwarder;\r\n    }\r\n}\r\n",
  "sourcePath": "/mnt/d/repos/klimadao-contracts/contracts/upgradeable/AlphaKlimaRedeemUpgradeable.sol",
  "compiler": {
    "name": "solc",
    "version": "0.8.4+commit.c7e474f2.Emscripten.clang"
  },
  "schemaVersion": "3.4.1",
  "updatedAt": "2021-09-17T20:20:02.622Z",
  "devdoc": {
    "kind": "dev",
    "methods": {},
    "version": 1
  },
  "userdoc": {
    "kind": "user",
    "methods": {},
    "version": 1
  }
}