{
  "contractName": "KlimaBondDepository_Regular",
  "abi": [
    {
      "inputs": [
        {
          "internalType": "address",
          "name": "_OHM",
          "type": "address"
        },
        {
          "internalType": "address",
          "name": "_principle",
          "type": "address"
        },
        {
          "internalType": "address",
          "name": "_treasury",
          "type": "address"
        },
        {
          "internalType": "address",
          "name": "_DAO",
          "type": "address"
        },
        {
          "internalType": "address",
          "name": "_bondCalculator",
          "type": "address"
        }
      ],
      "stateMutability": "nonpayable",
      "type": "constructor"
    },
    {
      "anonymous": false,
      "inputs": [
        {
          "indexed": false,
          "internalType": "uint256",
          "name": "deposit",
          "type": "uint256"
        },
        {
          "indexed": true,
          "internalType": "uint256",
          "name": "payout",
          "type": "uint256"
        },
        {
          "indexed": true,
          "internalType": "uint256",
          "name": "expires",
          "type": "uint256"
        },
        {
          "indexed": true,
          "internalType": "uint256",
          "name": "priceInUSD",
          "type": "uint256"
        }
      ],
      "name": "BondCreated",
      "type": "event"
    },
    {
      "anonymous": false,
      "inputs": [
        {
          "indexed": true,
          "internalType": "uint256",
          "name": "priceInUSD",
          "type": "uint256"
        },
        {
          "indexed": true,
          "internalType": "uint256",
          "name": "internalPrice",
          "type": "uint256"
        },
        {
          "indexed": true,
          "internalType": "uint256",
          "name": "debtRatio",
          "type": "uint256"
        }
      ],
      "name": "BondPriceChanged",
      "type": "event"
    },
    {
      "anonymous": false,
      "inputs": [
        {
          "indexed": true,
          "internalType": "address",
          "name": "recipient",
          "type": "address"
        },
        {
          "indexed": false,
          "internalType": "uint256",
          "name": "payout",
          "type": "uint256"
        },
        {
          "indexed": false,
          "internalType": "uint256",
          "name": "remaining",
          "type": "uint256"
        }
      ],
      "name": "BondRedeemed",
      "type": "event"
    },
    {
      "anonymous": false,
      "inputs": [
        {
          "indexed": false,
          "internalType": "uint256",
          "name": "initialBCV",
          "type": "uint256"
        },
        {
          "indexed": false,
          "internalType": "uint256",
          "name": "newBCV",
          "type": "uint256"
        },
        {
          "indexed": false,
          "internalType": "uint256",
          "name": "adjustment",
          "type": "uint256"
        },
        {
          "indexed": false,
          "internalType": "bool",
          "name": "addition",
          "type": "bool"
        }
      ],
      "name": "ControlVariableAdjustment",
      "type": "event"
    },
    {
      "anonymous": false,
      "inputs": [
        {
          "indexed": true,
          "internalType": "address",
          "name": "previousOwner",
          "type": "address"
        },
        {
          "indexed": true,
          "internalType": "address",
          "name": "newOwner",
          "type": "address"
        }
      ],
      "name": "OwnershipPulled",
      "type": "event"
    },
    {
      "anonymous": false,
      "inputs": [
        {
          "indexed": true,
          "internalType": "address",
          "name": "previousOwner",
          "type": "address"
        },
        {
          "indexed": true,
          "internalType": "address",
          "name": "newOwner",
          "type": "address"
        }
      ],
      "name": "OwnershipPushed",
      "type": "event"
    },
    {
      "inputs": [],
      "name": "DAO",
      "outputs": [
        {
          "internalType": "address",
          "name": "",
          "type": "address"
        }
      ],
      "stateMutability": "view",
      "type": "function"
    },
    {
      "inputs": [],
      "name": "OHM",
      "outputs": [
        {
          "internalType": "address",
          "name": "",
          "type": "address"
        }
      ],
      "stateMutability": "view",
      "type": "function"
    },
    {
      "inputs": [],
      "name": "adjustment",
      "outputs": [
        {
          "internalType": "bool",
          "name": "add",
          "type": "bool"
        },
        {
          "internalType": "uint256",
          "name": "rate",
          "type": "uint256"
        },
        {
          "internalType": "uint256",
          "name": "target",
          "type": "uint256"
        },
        {
          "internalType": "uint256",
          "name": "buffer",
          "type": "uint256"
        },
        {
          "internalType": "uint256",
          "name": "lastBlock",
          "type": "uint256"
        }
      ],
      "stateMutability": "view",
      "type": "function"
    },
    {
      "inputs": [],
      "name": "bondCalculator",
      "outputs": [
        {
          "internalType": "address",
          "name": "",
          "type": "address"
        }
      ],
      "stateMutability": "view",
      "type": "function"
    },
    {
      "inputs": [
        {
          "internalType": "address",
          "name": "",
          "type": "address"
        }
      ],
      "name": "bondInfo",
      "outputs": [
        {
          "internalType": "uint256",
          "name": "payout",
          "type": "uint256"
        },
        {
          "internalType": "uint256",
          "name": "vesting",
          "type": "uint256"
        },
        {
          "internalType": "uint256",
          "name": "lastBlock",
          "type": "uint256"
        },
        {
          "internalType": "uint256",
          "name": "pricePaid",
          "type": "uint256"
        }
      ],
      "stateMutability": "view",
      "type": "function"
    },
    {
      "inputs": [],
      "name": "isLiquidityBond",
      "outputs": [
        {
          "internalType": "bool",
          "name": "",
          "type": "bool"
        }
      ],
      "stateMutability": "view",
      "type": "function"
    },
    {
      "inputs": [],
      "name": "lastDecay",
      "outputs": [
        {
          "internalType": "uint256",
          "name": "",
          "type": "uint256"
        }
      ],
      "stateMutability": "view",
      "type": "function"
    },
    {
      "inputs": [],
      "name": "manager",
      "outputs": [
        {
          "internalType": "address",
          "name": "",
          "type": "address"
        }
      ],
      "stateMutability": "view",
      "type": "function"
    },
    {
      "inputs": [],
      "name": "principle",
      "outputs": [
        {
          "internalType": "address",
          "name": "",
          "type": "address"
        }
      ],
      "stateMutability": "view",
      "type": "function"
    },
    {
      "inputs": [],
      "name": "pullManagement",
      "outputs": [],
      "stateMutability": "nonpayable",
      "type": "function"
    },
    {
      "inputs": [
        {
          "internalType": "address",
          "name": "newOwner_",
          "type": "address"
        }
      ],
      "name": "pushManagement",
      "outputs": [],
      "stateMutability": "nonpayable",
      "type": "function"
    },
    {
      "inputs": [],
      "name": "renounceManagement",
      "outputs": [],
      "stateMutability": "nonpayable",
      "type": "function"
    },
    {
      "inputs": [],
      "name": "staking",
      "outputs": [
        {
          "internalType": "address",
          "name": "",
          "type": "address"
        }
      ],
      "stateMutability": "view",
      "type": "function"
    },
    {
      "inputs": [],
      "name": "stakingHelper",
      "outputs": [
        {
          "internalType": "address",
          "name": "",
          "type": "address"
        }
      ],
      "stateMutability": "view",
      "type": "function"
    },
    {
      "inputs": [],
      "name": "terms",
      "outputs": [
        {
          "internalType": "uint256",
          "name": "controlVariable",
          "type": "uint256"
        },
        {
          "internalType": "uint256",
          "name": "vestingTerm",
          "type": "uint256"
        },
        {
          "internalType": "uint256",
          "name": "minimumPrice",
          "type": "uint256"
        },
        {
          "internalType": "uint256",
          "name": "maxPayout",
          "type": "uint256"
        },
        {
          "internalType": "uint256",
          "name": "fee",
          "type": "uint256"
        },
        {
          "internalType": "uint256",
          "name": "maxDebt",
          "type": "uint256"
        }
      ],
      "stateMutability": "view",
      "type": "function"
    },
    {
      "inputs": [],
      "name": "totalDebt",
      "outputs": [
        {
          "internalType": "uint256",
          "name": "",
          "type": "uint256"
        }
      ],
      "stateMutability": "view",
      "type": "function"
    },
    {
      "inputs": [],
      "name": "treasury",
      "outputs": [
        {
          "internalType": "address",
          "name": "",
          "type": "address"
        }
      ],
      "stateMutability": "view",
      "type": "function"
    },
    {
      "inputs": [],
      "name": "useHelper",
      "outputs": [
        {
          "internalType": "bool",
          "name": "",
          "type": "bool"
        }
      ],
      "stateMutability": "view",
      "type": "function"
    },
    {
      "inputs": [
        {
          "internalType": "uint256",
          "name": "_controlVariable",
          "type": "uint256"
        },
        {
          "internalType": "uint256",
          "name": "_vestingTerm",
          "type": "uint256"
        },
        {
          "internalType": "uint256",
          "name": "_minimumPrice",
          "type": "uint256"
        },
        {
          "internalType": "uint256",
          "name": "_maxPayout",
          "type": "uint256"
        },
        {
          "internalType": "uint256",
          "name": "_fee",
          "type": "uint256"
        },
        {
          "internalType": "uint256",
          "name": "_maxDebt",
          "type": "uint256"
        },
        {
          "internalType": "uint256",
          "name": "_initialDebt",
          "type": "uint256"
        }
      ],
      "name": "initializeBondTerms",
      "outputs": [],
      "stateMutability": "nonpayable",
      "type": "function"
    },
    {
      "inputs": [
        {
          "internalType": "enum KlimaBondDepository_Regular.PARAMETER",
          "name": "_parameter",
          "type": "uint8"
        },
        {
          "internalType": "uint256",
          "name": "_input",
          "type": "uint256"
        }
      ],
      "name": "setBondTerms",
      "outputs": [],
      "stateMutability": "nonpayable",
      "type": "function"
    },
    {
      "inputs": [
        {
          "internalType": "bool",
          "name": "_addition",
          "type": "bool"
        },
        {
          "internalType": "uint256",
          "name": "_increment",
          "type": "uint256"
        },
        {
          "internalType": "uint256",
          "name": "_target",
          "type": "uint256"
        },
        {
          "internalType": "uint256",
          "name": "_buffer",
          "type": "uint256"
        }
      ],
      "name": "setAdjustment",
      "outputs": [],
      "stateMutability": "nonpayable",
      "type": "function"
    },
    {
      "inputs": [
        {
          "internalType": "address",
          "name": "_staking",
          "type": "address"
        },
        {
          "internalType": "bool",
          "name": "_helper",
          "type": "bool"
        }
      ],
      "name": "setStaking",
      "outputs": [],
      "stateMutability": "nonpayable",
      "type": "function"
    },
    {
      "inputs": [
        {
          "internalType": "uint256",
          "name": "_amount",
          "type": "uint256"
        },
        {
          "internalType": "uint256",
          "name": "_maxPrice",
          "type": "uint256"
        },
        {
          "internalType": "address",
          "name": "_depositor",
          "type": "address"
        }
      ],
      "name": "deposit",
      "outputs": [
        {
          "internalType": "uint256",
          "name": "",
          "type": "uint256"
        }
      ],
      "stateMutability": "nonpayable",
      "type": "function"
    },
    {
      "inputs": [
        {
          "internalType": "address",
          "name": "_recipient",
          "type": "address"
        },
        {
          "internalType": "bool",
          "name": "_stake",
          "type": "bool"
        }
      ],
      "name": "redeem",
      "outputs": [
        {
          "internalType": "uint256",
          "name": "",
          "type": "uint256"
        }
      ],
      "stateMutability": "nonpayable",
      "type": "function"
    },
    {
      "inputs": [],
      "name": "maxPayout",
      "outputs": [
        {
          "internalType": "uint256",
          "name": "",
          "type": "uint256"
        }
      ],
      "stateMutability": "view",
      "type": "function"
    },
    {
      "inputs": [
        {
          "internalType": "uint256",
          "name": "_value",
          "type": "uint256"
        }
      ],
      "name": "payoutFor",
      "outputs": [
        {
          "internalType": "uint256",
          "name": "",
          "type": "uint256"
        }
      ],
      "stateMutability": "view",
      "type": "function"
    },
    {
      "inputs": [],
      "name": "bondPrice",
      "outputs": [
        {
          "internalType": "uint256",
          "name": "price_",
          "type": "uint256"
        }
      ],
      "stateMutability": "view",
      "type": "function"
    },
    {
      "inputs": [],
      "name": "bondPriceInUSD",
      "outputs": [
        {
          "internalType": "uint256",
          "name": "price_",
          "type": "uint256"
        }
      ],
      "stateMutability": "view",
      "type": "function"
    },
    {
      "inputs": [],
      "name": "debtRatio",
      "outputs": [
        {
          "internalType": "uint256",
          "name": "debtRatio_",
          "type": "uint256"
        }
      ],
      "stateMutability": "view",
      "type": "function"
    },
    {
      "inputs": [],
      "name": "standardizedDebtRatio",
      "outputs": [
        {
          "internalType": "uint256",
          "name": "",
          "type": "uint256"
        }
      ],
      "stateMutability": "view",
      "type": "function"
    },
    {
      "inputs": [],
      "name": "currentDebt",
      "outputs": [
        {
          "internalType": "uint256",
          "name": "",
          "type": "uint256"
        }
      ],
      "stateMutability": "view",
      "type": "function"
    },
    {
      "inputs": [],
      "name": "debtDecay",
      "outputs": [
        {
          "internalType": "uint256",
          "name": "decay_",
          "type": "uint256"
        }
      ],
      "stateMutability": "view",
      "type": "function"
    },
    {
      "inputs": [
        {
          "internalType": "address",
          "name": "_depositor",
          "type": "address"
        }
      ],
      "name": "percentVestedFor",
      "outputs": [
        {
          "internalType": "uint256",
          "name": "percentVested_",
          "type": "uint256"
        }
      ],
      "stateMutability": "view",
      "type": "function"
    },
    {
      "inputs": [
        {
          "internalType": "address",
          "name": "_depositor",
          "type": "address"
        }
      ],
      "name": "pendingPayoutFor",
      "outputs": [
        {
          "internalType": "uint256",
          "name": "pendingPayout_",
          "type": "uint256"
        }
      ],
      "stateMutability": "view",
      "type": "function"
    },
    {
      "inputs": [
        {
          "internalType": "address",
          "name": "_token",
          "type": "address"
        }
      ],
      "name": "recoverLostToken",
      "outputs": [
        {
          "internalType": "bool",
          "name": "",
          "type": "bool"
        }
      ],
      "stateMutability": "nonpayable",
      "type": "function"
    }
  ],
  "bytecode": "0x6101406040523480156200001257600080fd5b5060405162002e1238038062002e12833981016040819052620000359162000151565b600080546001600160a01b0319163390811782556040519091907fea8258f2d9ddb679928cf34b78cf645b7feda9acc828e4dd82d014eaae270eba908290a36001600160a01b0385166200008857600080fd5b6001600160601b0319606086901b166080526001600160a01b038416620000ae57600080fd5b6001600160601b0319606085901b1660a0526001600160a01b038316620000d457600080fd5b6001600160601b0319606084901b1660c0526001600160a01b038216620000fa57600080fd5b6001600160601b0319606092831b811660e0529181901b909116610120526001600160a01b0316151560f81b6101005250620001c0915050565b80516001600160a01b03811681146200014c57600080fd5b919050565b600080600080600060a0868803121562000169578081fd5b620001748662000134565b9450620001846020870162000134565b9350620001946040870162000134565b9250620001a46060870162000134565b9150620001b46080870162000134565b90509295509295909350565b60805160601c60a05160601c60c05160601c60e05160601c6101005160f81c6101205160601c612b48620002ca6000396000818161046c01528181610ec7015261166801526000818161054e01528181610e5901526115f701526000818161040b01528181611499015261178d01526000818161038001528181611152015281816112ee01526113e701526000818161021b01528181610e9401528181610f5b01528181611120015281816112af0152818161131d015281816113b801528181611632015261173701526000818161043201528181611477015281816116f80152818161182f015281816119d901528181611ba201528181611c5f0152611d720152612b486000f3fe608060405234801561001057600080fd5b50600436106102115760003560e01c80637927ebf811610125578063cea55f57116100ad578063d7ccfb0b1161007c578063d7ccfb0b14610570578063e0176de814610578578063e392a26214610580578063f5c2ab5b14610588578063fc7b9c181461059157600080fd5b8063cea55f57146104e3578063d4d863ce146104eb578063d5025625146104fe578063d79690601461054957600080fd5b806398fabd3a116100f457806398fabd3a14610406578063a6c41fec1461042d578063b4abccba14610454578063c5332b7c14610467578063cd1234b31461048e57600080fd5b80637927ebf8146103d0578063844b5c7c146103e35780638dbdbe6d146103eb578063904b3ece146103fe57600080fd5b806346f68ee9116101a85780635a96ac0a116101775780635a96ac0a1461037357806361d027b31461037b57806371535008146103a2578063759076e5146103b557806377b81895146103bd57600080fd5b806346f68ee914610329578063481c6a751461033c5780634cf088d91461034d578063507930ec1461036057600080fd5b80631e321a0f116101e45780631e321a0f146102985780631feed31f146102ab5780632f3f470a146102be578063451ee4a1146102e257600080fd5b8063016a42841461021657806301b88ee81461025a578063089208d81461027b5780631a3d006814610285575b600080fd5b61023d7f000000000000000000000000000000000000000000000000000000000000000081565b6040516001600160a01b0390911681526020015b60405180910390f35b61026d610268366004612746565b61059a565b604051908152602001610251565b6102836105f3565b005b6102836102933660046127b2565b610670565b6102836102a63660046127ec565b610740565b61026d6102b9366004612760565b610928565b6003546102d290600160a01b900460ff1681565b6040519015158152602001610251565b600a54600b54600c54600d54600e546102ff9460ff169392919085565b6040805195151586526020860194909452928401919091526060830152608082015260a001610251565b610283610337366004612746565b610b12565b6000546001600160a01b031661023d565b60025461023d906001600160a01b031681565b61026d61036e366004612746565b610bfc565b610283610c82565b61023d7f000000000000000000000000000000000000000000000000000000000000000081565b6102836103b036600461287e565b610d48565b61026d610e14565b60035461023d906001600160a01b031681565b61026d6103de36600461281a565b610e2f565b61026d610e55565b61026d6103f936600461284a565b610ff8565b61026d6115f3565b61023d7f000000000000000000000000000000000000000000000000000000000000000081565b61023d7f000000000000000000000000000000000000000000000000000000000000000081565b6102d2610462366004612746565b6116f4565b61023d7f000000000000000000000000000000000000000000000000000000000000000081565b6104c361049c366004612746565b600f6020526000908152604090208054600182015460028301546003909301549192909184565b604080519485526020850193909352918301526060820152608001610251565b61026d61182a565b6102836104f9366004612760565b6118ee565b60045460055460065460075460085460095461051c95949392919086565b604080519687526020870195909552938501929092526060840152608083015260a082015260c001610251565b6102d27f000000000000000000000000000000000000000000000000000000000000000081565b61026d611986565b61026d6119c5565b61026d611a68565b61026d60115481565b61026d60105481565b6000806105a683610bfc565b6001600160a01b0384166000908152600f602052604090205490915061271082106105d3578092506105ec565b6105e96127106105e38385611aad565b90611b33565b92505b5050919050565b6000546001600160a01b031633146106265760405162461bcd60e51b815260040161061d90612939565b60405180910390fd5b600080546040516001600160a01b03909116907fea8258f2d9ddb679928cf34b78cf645b7feda9acc828e4dd82d014eaae270eba908390a3600080546001600160a01b0319169055565b6000546001600160a01b0316331461069a5760405162461bcd60e51b815260040161061d90612939565b6004546106b0906103e8906105e3906019611aad565b8311156106f55760405162461bcd60e51b8152602060048201526013602482015272496e6372656d656e7420746f6f206c6172676560681b604482015260640161061d565b6040805160a0810182529415158086526020860185905290850183905260608501829052436080909501859052600a805460ff19169091179055600b92909255600c55600d55600e55565b6000546001600160a01b0316331461076a5760405162461bcd60e51b815260040161061d90612939565b600082600381111561078c57634e487b7160e01b600052602160045260246000fd5b14156107f6576127108110156107f05760405162461bcd60e51b8152602060048201526024808201527f56657374696e67206d757374206265206c6f6e676572207468616e20333620686044820152636f75727360e01b606482015260840161061d565b60055550565b600182600381111561081857634e487b7160e01b600052602160045260246000fd5b1415610876576103e88111156108705760405162461bcd60e51b815260206004820181905260248201527f5061796f75742063616e6e6f742062652061626f766520312070657263656e74604482015260640161061d565b60075550565b600282600381111561089857634e487b7160e01b600052602160045260246000fd5b14156108f6576127108111156108f05760405162461bcd60e51b815260206004820152601c60248201527f44414f206665652063616e6e6f7420657863656564207061796f757400000000604482015260640161061d565b60085550565b600382600381111561091857634e487b7160e01b600052602160045260246000fd5b14156109245760098190555b5050565b6001600160a01b0382166000908152600f602090815260408083208151608081018352815481526001820154938101939093526002810154918301919091526003015460608201528161097a85610bfc565b90506127108110610a0c576001600160a01b0385166000818152600f60205260408082208281556001810183905560028101839055600301829055845190517f51c99f515c87b0d95ba97f616edd182e8f161c4932eac17c6fefe9dab58b77b1926109ec928252602082015260400190565b60405180910390a2610a0385858460000151611b75565b92505050610b0c565b8151600090610a2390612710906105e39085611aad565b90506040518060800160405280610a47838660000151611e8090919063ffffffff16565b8152602001610a71610a66866040015143611e8090919063ffffffff16565b602087015190611e80565b8152436020808301919091526060868101516040938401526001600160a01b038a166000818152600f8452849020855180825586850151600183015586860151600283015595909201516003909201919091558251858152918201939093527f51c99f515c87b0d95ba97f616edd182e8f161c4932eac17c6fefe9dab58b77b1910160405180910390a2610b06868683611b75565b93505050505b92915050565b6000546001600160a01b03163314610b3c5760405162461bcd60e51b815260040161061d90612939565b6001600160a01b038116610ba15760405162461bcd60e51b815260206004820152602660248201527f4f776e61626c653a206e6577206f776e657220697320746865207a65726f206160448201526564647265737360d01b606482015260840161061d565b600080546040516001600160a01b03808516939216917fea8258f2d9ddb679928cf34b78cf645b7feda9acc828e4dd82d014eaae270eba91a3600180546001600160a01b0319166001600160a01b0392909216919091179055565b6001600160a01b0381166000908152600f6020908152604080832081516080810183528154815260018201549381019390935260028101549183018290526003015460608301528290610c50904390611e80565b60208301519091508015610c7557610c6e816105e384612710611aad565b9350610c7a565b600093505b505050919050565b6001546001600160a01b03163314610ce75760405162461bcd60e51b815260206004820152602260248201527f4f776e61626c653a206d757374206265206e6577206f776e657220746f2070756044820152611b1b60f21b606482015260840161061d565b600154600080546040516001600160a01b0393841693909116917faa151555690c956fc3ea32f106bb9f119b5237a061eaa8557cff3e51e3792c8d91a3600154600080546001600160a01b0319166001600160a01b03909216919091179055565b6000546001600160a01b03163314610d725760405162461bcd60e51b815260040161061d90612939565b60045415610dc25760405162461bcd60e51b815260206004820181905260248201527f426f6e6473206d75737420626520696e697469616c697a65642066726f6d2030604482015260640161061d565b6040805160c08101825288815260208101889052908101869052606081018590526080810184905260a00182905260049690965560059490945560069290925560075560085560095560105543601155565b6000610e2a610e21611a68565b60105490611e80565b905090565b6000610b0c662386f26fc100006105e3610e5085610e4b611986565b611ec2565b611ffd565b60007f000000000000000000000000000000000000000000000000000000000000000015610f51576040516332da80a360e01b81526001600160a01b037f000000000000000000000000000000000000000000000000000000000000000081166004830152610e2a916064916105e3917f0000000000000000000000000000000000000000000000000000000000000000909116906332da80a39060240160206040518083038186803b158015610f0b57600080fd5b505afa158015610f1f573d6000803e3d6000fd5b505050506040513d601f19601f82011682018060405250810190610f439190612832565b610f4b611986565b90611aad565b610e2a60646105e37f00000000000000000000000000000000000000000000000000000000000000006001600160a01b031663313ce5676040518163ffffffff1660e01b815260040160206040518083038186803b158015610fb257600080fd5b505afa158015610fc6573d6000803e3d6000fd5b505050506040513d601f19601f82011682018060405250810190610fea91906128c9565b610f4390600a6129e1565b90565b60006001600160a01b0382166110425760405162461bcd60e51b815260206004820152600f60248201526e496e76616c6964206164647265737360881b604482015260640161061d565b61104a61201d565b60095460105411156110955760405162461bcd60e51b815260206004820152601460248201527313585e0818d85c1858da5d1e481c995858da195960621b604482015260640161061d565b600061109f610e55565b905060006110ab612031565b9050808510156111095760405162461bcd60e51b815260206004820152602360248201527f536c697070616765206c696d69743a206d6f7265207468616e206d617820707260448201526269636560e81b606482015260840161061d565b604051630f762d4d60e11b81526001600160a01b037f000000000000000000000000000000000000000000000000000000000000000081166004830152602482018890526000917f000000000000000000000000000000000000000000000000000000000000000090911690631eec5a9a9060440160206040518083038186803b15801561119657600080fd5b505afa1580156111aa573d6000803e3d6000fd5b505050506040513d601f19601f820116820180604052508101906111ce9190612832565b905060006111db82610e2f565b9050629896808110156112215760405162461bcd60e51b815260206004820152600e60248201526d109bdb99081d1bdbc81cdb585b1b60921b604482015260640161061d565b6112296119c5565b8111156112695760405162461bcd60e51b815260206004820152600e60248201526d426f6e6420746f6f206c6172676560901b604482015260640161061d565b60006112886127106105e3600480015485611aad90919063ffffffff16565b905060006112a08261129a8686611e80565b90611e80565b90506112d76001600160a01b037f00000000000000000000000000000000000000000000000000000000000000001633308d612071565b60405163095ea7b360e01b81526001600160a01b037f000000000000000000000000000000000000000000000000000000000000000081166004830152602482018c90527f0000000000000000000000000000000000000000000000000000000000000000169063095ea7b390604401602060405180830381600087803b15801561136157600080fd5b505af1158015611375573d6000803e3d6000fd5b505050506040513d601f19601f820116820180604052508101906113999190612796565b5060405163bc157ac160e01b8152600481018b90526001600160a01b037f000000000000000000000000000000000000000000000000000000000000000081166024830152604482018390527f0000000000000000000000000000000000000000000000000000000000000000169063bc157ac190606401602060405180830381600087803b15801561142b57600080fd5b505af115801561143f573d6000803e3d6000fd5b505050506040513d601f19601f820116820180604052508101906114639190612796565b5081156114be576114be6001600160a01b037f0000000000000000000000000000000000000000000000000000000000000000167f0000000000000000000000000000000000000000000000000000000000000000846120e2565b6010546114cb9085612117565b601055604080516080810182526001600160a01b038a166000908152600f602052919091205481906114fd9086612117565b81526005805460208084019190915243604080850182905260609485018c90526001600160a01b038e166000908152600f8452819020865181559286015160018401558501516002830155939092015160039092019190915554879161156291612117565b847f1fec6dc81f140574bf43f6b1e420ae1dd47928b9d57db8cbd7b8611063b85ae58d60405161159491815260200190565b60405180910390a46115a461182a565b6115ac612031565b6115b4610e55565b6040517f375b221f40939bfd8f49723a17cf7bc6d576ebf72efe2cc3e991826f5b3f390a90600090a46115e5612176565b509098975050505050505050565b60007f0000000000000000000000000000000000000000000000000000000000000000156116ec576040516332da80a360e01b81526001600160a01b037f000000000000000000000000000000000000000000000000000000000000000081166004830152610e2a91633b9aca00916105e3917f0000000000000000000000000000000000000000000000000000000000000000909116906332da80a39060240160206040518083038186803b1580156116ac57600080fd5b505afa1580156116c0573d6000803e3d6000fd5b505050506040513d601f19601f820116820180604052508101906116e49190612832565b610f4b61182a565b610e2a61182a565b60007f00000000000000000000000000000000000000000000000000000000000000006001600160a01b0316826001600160a01b0316141561173557600080fd5b7f00000000000000000000000000000000000000000000000000000000000000006001600160a01b0316826001600160a01b0316141561177457600080fd5b6040516370a0823160e01b8152306004820152611822907f0000000000000000000000000000000000000000000000000000000000000000906001600160a01b038516906370a082319060240160206040518083038186803b1580156117d957600080fd5b505afa1580156117ed573d6000803e3d6000fd5b505050506040513d601f19601f820116820180604052508101906118119190612832565b6001600160a01b03851691906120e2565b506001919050565b6000807f00000000000000000000000000000000000000000000000000000000000000006001600160a01b03166318160ddd6040518163ffffffff1660e01b815260040160206040518083038186803b15801561188657600080fd5b505afa15801561189a573d6000803e3d6000fd5b505050506040513d601f19601f820116820180604052508101906118be9190612832565b90506118e8670de0b6b3a76400006105e3610e506118e2633b9aca00610f4b610e14565b85611ec2565b91505090565b6000546001600160a01b031633146119185760405162461bcd60e51b815260040161061d90612939565b6001600160a01b03821661192b57600080fd5b801561195857600380546001600160a01b0384166001600160a81b031990911617600160a01b1790555050565b6003805460ff60a01b19169055600280546001600160a01b0384166001600160a01b03199091161790555050565b60006119b1629896806105e3633b9aca006119ab6119a261182a565b60045490611aad565b90612117565b600654909150811015610ff5575060065490565b6000610e2a620186a06105e36004600301547f00000000000000000000000000000000000000000000000000000000000000006001600160a01b03166318160ddd6040518163ffffffff1660e01b815260040160206040518083038186803b158015611a3057600080fd5b505afa158015611a44573d6000803e3d6000fd5b505050506040513d601f19601f82011682018060405250810190610f4b9190612832565b600080611a8060115443611e8090919063ffffffff16565b600554601054919250611a97916105e39084611aad565b9150601054821115611aa95760105491505b5090565b600082611abc57506000610b0c565b6000611ac88385612a8c565b905082611ad58583612986565b14611b2c5760405162461bcd60e51b815260206004820152602160248201527f536166654d6174683a206d756c7469706c69636174696f6e206f766572666c6f6044820152607760f81b606482015260840161061d565b9392505050565b6000611b2c83836040518060400160405280601a81526020017f536166654d6174683a206469766973696f6e206279207a65726f000000000000815250612257565b600082611c245760405163a9059cbb60e01b81526001600160a01b038581166004830152602482018490527f0000000000000000000000000000000000000000000000000000000000000000169063a9059cbb90604401602060405180830381600087803b158015611be657600080fd5b505af1158015611bfa573d6000803e3d6000fd5b505050506040513d601f19601f82011682018060405250810190611c1e9190612796565b50611e79565b600354600160a01b900460ff1615611d495760035460405163095ea7b360e01b81526001600160a01b039182166004820152602481018490527f00000000000000000000000000000000000000000000000000000000000000009091169063095ea7b390604401602060405180830381600087803b158015611ca557600080fd5b505af1158015611cb9573d6000803e3d6000fd5b505050506040513d601f19601f82011682018060405250810190611cdd9190612796565b50600354604051637acb775760e01b8152600481018490526001600160a01b03868116602483015290911690637acb775790604401600060405180830381600087803b158015611d2c57600080fd5b505af1158015611d40573d6000803e3d6000fd5b50505050611e79565b60025460405163095ea7b360e01b81526001600160a01b039182166004820152602481018490527f00000000000000000000000000000000000000000000000000000000000000009091169063095ea7b390604401602060405180830381600087803b158015611db857600080fd5b505af1158015611dcc573d6000803e3d6000fd5b505050506040513d601f19601f82011682018060405250810190611df09190612796565b50600254604051637acb775760e01b8152600481018490526001600160a01b03868116602483015290911690637acb775790604401602060405180830381600087803b158015611e3f57600080fd5b505af1158015611e53573d6000803e3d6000fd5b505050506040513d601f19601f82011682018060405250810190611e779190612796565b505b5092915050565b6000611b2c83836040518060400160405280601e81526020017f536166654d6174683a207375627472616374696f6e206f766572666c6f77000081525061228e565b60408051602081019091526000815260008211611f305760405162461bcd60e51b815260206004820152602660248201527f4669786564506f696e743a3a6672616374696f6e3a206469766973696f6e206260448201526579207a65726f60d01b606482015260840161061d565b82611f4a5750604080516020810190915260008152610b0c565b71ffffffffffffffffffffffffffffffffffff8311611fec576000611f7383607086901b612986565b90506001600160e01b03811115611fcc5760405162461bcd60e51b815260206004820152601e60248201527f4669786564506f696e743a3a6672616374696f6e3a206f766572666c6f770000604482015260640161061d565b6040518060200160405280826001600160e01b0316815250915050610b0c565b6000611f7384600160701b856122bf565b8051600090610b0c906612725dd1d243ab906001600160e01b0316612986565b612028610e21611a68565b60105543601155565b600061204d629896806105e3633b9aca006119ab6119a261182a565b600654909150811015612061575060065490565b60065415610ff557600060065590565b6040516001600160a01b03808516602483015283166044820152606481018290526120dc9085906323b872dd60e01b906084015b60408051601f198184030181529190526020810180516001600160e01b03166001600160e01b03199093169290921790915261237c565b50505050565b6040516001600160a01b03831660248201526044810182905261211290849063a9059cbb60e01b906064016120a5565b505050565b600080612124838561296e565b905083811015611b2c5760405162461bcd60e51b815260206004820152601b60248201527f536166654d6174683a206164646974696f6e206f766572666c6f770000000000604482015260640161061d565b600d54600e546000916121899190612117565b600b549091501580159061219d5750804310155b1561225457600454600a5460ff16156121d757600b546004546121bf91612117565b6004819055600c54116121d2576000600b555b6121f9565b600b546004546121e691611e80565b6004819055600c54106121f9576000600b555b43600e55600454600b54600a5460408051858152602081019490945283019190915260ff16151560608201527fb923e581a0f83128e9e1d8297aa52b18d6744310476e0b54509c054cd7a93b2a9060800160405180910390a1505b50565b600081836122785760405162461bcd60e51b815260040161061d9190612906565b5060006122858486612986565b95945050505050565b600081848411156122b25760405162461bcd60e51b815260040161061d9190612906565b5060006122858486612aab565b60008060006122ce868661244e565b91509150600084806122f057634e487b7160e01b600052601260045260246000fd5b86880990508281111561230b57612308600183612aab565b91505b6123158184612aab565b92508482106123665760405162461bcd60e51b815260206004820152601a60248201527f46756c6c4d6174683a3a6d756c4469763a206f766572666c6f77000000000000604482015260640161061d565b612371838387612490565b979650505050505050565b60006123d1826040518060400160405280602081526020017f5361666545524332303a206c6f772d6c6576656c2063616c6c206661696c6564815250856001600160a01b03166126279092919063ffffffff16565b80519091501561211257808060200190518101906123ef9190612796565b6121125760405162461bcd60e51b815260206004820152602a60248201527f5361666545524332303a204552433230206f7065726174696f6e20646964206e6044820152691bdd081cdd58d8d9595960b21b606482015260840161061d565b6000808060001984860990506124648486612a8c565b92506124708382612aab565b91508281101561248857612485600183612aab565b91505b509250929050565b60008061249f83600019612aab565b6124aa90600161296e565b831690506124b88184612986565b92506124c48186612986565b9450806124d381600019612aab565b6124de90600161296e565b6124e89190612986565b6124f390600161296e565b6124fd9085612a8c565b612507908661296e565b945060016125158185612a8c565b612520906002612aab565b61252a9082612a8c565b90506125368185612a8c565b612541906002612aab565b61254b9082612a8c565b90506125578185612a8c565b612562906002612aab565b61256c9082612a8c565b90506125788185612a8c565b612583906002612aab565b61258d9082612a8c565b90506125998185612a8c565b6125a4906002612aab565b6125ae9082612a8c565b90506125ba8185612a8c565b6125c5906002612aab565b6125cf9082612a8c565b90506125db8185612a8c565b6125e6906002612aab565b6125f09082612a8c565b90506125fc8185612a8c565b612607906002612aab565b6126119082612a8c565b905061261d8187612a8c565b9695505050505050565b6060612636848460008561263e565b949350505050565b6060843b61268e5760405162461bcd60e51b815260206004820152601d60248201527f416464726573733a2063616c6c20746f206e6f6e2d636f6e7472616374000000604482015260640161061d565b600080866001600160a01b031685876040516126aa91906128ea565b60006040518083038185875af1925050503d80600081146126e7576040519150601f19603f3d011682016040523d82523d6000602084013e6126ec565b606091505b509150915081156127005791506126369050565b8051156127105780518082602001fd5b8360405162461bcd60e51b815260040161061d9190612906565b80356001600160a01b038116811461274157600080fd5b919050565b600060208284031215612757578081fd5b611b2c8261272a565b60008060408385031215612772578081fd5b61277b8361272a565b9150602083013561278b81612b04565b809150509250929050565b6000602082840312156127a7578081fd5b8151611b2c81612b04565b600080600080608085870312156127c7578182fd5b84356127d281612b04565b966020860135965060408601359560600135945092505050565b600080604083850312156127fe578182fd5b82356004811061280c578283fd5b946020939093013593505050565b60006020828403121561282b578081fd5b5035919050565b600060208284031215612843578081fd5b5051919050565b60008060006060848603121561285e578283fd5b83359250602084013591506128756040850161272a565b90509250925092565b600080600080600080600060e0888a031215612898578283fd5b505085359760208701359750604087013596606081013596506080810135955060a0810135945060c0013592509050565b6000602082840312156128da578081fd5b815160ff81168114611b2c578182fd5b600082516128fc818460208701612ac2565b9190910192915050565b6020815260008251806020840152612925816040850160208701612ac2565b601f01601f19169190910160400192915050565b6020808252818101527f4f776e61626c653a2063616c6c6572206973206e6f7420746865206f776e6572604082015260600190565b6000821982111561298157612981612aee565b500190565b6000826129a157634e487b7160e01b81526012600452602481fd5b500490565b600181815b808511156124885781600019048211156129c7576129c7612aee565b808516156129d457918102915b93841c93908002906129ab565b6000611b2c60ff8416836000826129fa57506001610b0c565b81612a0757506000610b0c565b8160018114612a1d5760028114612a2757612a43565b6001915050610b0c565b60ff841115612a3857612a38612aee565b50506001821b610b0c565b5060208310610133831016604e8410600b8410161715612a66575081810a610b0c565b612a7083836129a6565b8060001904821115612a8457612a84612aee565b029392505050565b6000816000190483118215151615612aa657612aa6612aee565b500290565b600082821015612abd57612abd612aee565b500390565b60005b83811015612add578181015183820152602001612ac5565b838111156120dc5750506000910152565b634e487b7160e01b600052601160045260246000fd5b801515811461225457600080fdfea2646970667358221220baf155b04b4ca8505944d902950a01b3b4fe3a2a5c89d571b54a74f9c7b54c8e64736f6c63430008040033",
  "immutableReferences": {
    "3755": [
      {
        "length": 32,
        "start": 1074
      },
      {
        "length": 32,
        "start": 5239
      },
      {
        "length": 32,
        "start": 5880
      },
      {
        "length": 32,
        "start": 6191
      },
      {
        "length": 32,
        "start": 6617
      },
      {
        "length": 32,
        "start": 7074
      },
      {
        "length": 32,
        "start": 7263
      },
      {
        "length": 32,
        "start": 7538
      }
    ],
    "3757": [
      {
        "length": 32,
        "start": 539
      },
      {
        "length": 32,
        "start": 3732
      },
      {
        "length": 32,
        "start": 3931
      },
      {
        "length": 32,
        "start": 4384
      },
      {
        "length": 32,
        "start": 4783
      },
      {
        "length": 32,
        "start": 4893
      },
      {
        "length": 32,
        "start": 5048
      },
      {
        "length": 32,
        "start": 5682
      },
      {
        "length": 32,
        "start": 5943
      }
    ],
    "3759": [
      {
        "length": 32,
        "start": 896
      },
      {
        "length": 32,
        "start": 4434
      },
      {
        "length": 32,
        "start": 4846
      },
      {
        "length": 32,
        "start": 5095
      }
    ],
    "3761": [
      {
        "length": 32,
        "start": 1035
      },
      {
        "length": 32,
        "start": 5273
      },
      {
        "length": 32,
        "start": 6029
      }
    ],
    "3763": [
      {
        "length": 32,
        "start": 1358
      },
      {
        "length": 32,
        "start": 3673
      },
      {
        "length": 32,
        "start": 5623
      }
    ],
    "3765": [
      {
        "length": 32,
        "start": 1132
      },
      {
        "length": 32,
        "start": 3783
      },
      {
        "length": 32,
        "start": 5736
      }
    ]
  },
  "source": "\n\n// SPDX-License-Identifier: MIT\npragma solidity ^0.8.4;\n\n\nimport \"../helpers/libraries/SafeMath.sol\";\nimport \"../helpers/libraries/Address.sol\";\nimport \"../helpers/libraries/FullMath.sol\";\nimport \"../helpers/libraries/FixedPoint.sol\";\nimport \"../helpers/libraries/Counters.sol\";\nimport \"../helpers/libraries/SafeERC20.sol\";\n\n//import \"../helpers/interfaces/IERC2612Permit.sol\";\nimport \"../helpers/interfaces/IERC20.sol\";\nimport \"../helpers/interfaces/ITreasury.sol\";\nimport \"../helpers/interfaces/IBondCalculator.sol\";\nimport \"../helpers/interfaces/IStaking.sol\";\nimport \"../helpers/interfaces/IStakingHelper.sol\";\n\nimport \"../helpers/abstracts/ERC20.sol\";\nimport \"../helpers/abstracts/ERC20Permit.sol\";\n\nimport \"../helpers/Ownable.sol\";\n\n\n\ncontract KlimaBondDepository_Regular is Ownable {\n\n    using FixedPoint for *;\n    using SafeERC20 for IERC20;\n    using SafeMath for uint;\n\n\n\n\n    /* ======== EVENTS ======== */\n\n    event BondCreated( uint deposit, uint indexed payout, uint indexed expires, uint indexed priceInUSD );\n    event BondRedeemed( address indexed recipient, uint payout, uint remaining );\n    event BondPriceChanged( uint indexed priceInUSD, uint indexed internalPrice, uint indexed debtRatio );\n    event ControlVariableAdjustment( uint initialBCV, uint newBCV, uint adjustment, bool addition );\n\n\n\n\n    /* ======== STATE VARIABLES ======== */\n\n    address public immutable OHM; // token given as payment for bond\n    address public immutable principle; // token used to create bond\n    address public immutable treasury; // mints OHM when receives principle\n    address public immutable DAO; // receives profit share from bond\n\n    bool public immutable isLiquidityBond; // LP and Reserve bonds are treated slightly different\n    address public immutable bondCalculator; // calculates value of LP tokens\n\n    address public staking; // to auto-stake payout\n    address public stakingHelper; // to stake and claim if no staking warmup\n    bool public useHelper;\n\n    Terms public terms; // stores terms for new bonds\n    Adjust public adjustment; // stores adjustment to BCV data\n\n    mapping( address => Bond ) public bondInfo; // stores bond information for depositors\n\n    uint public totalDebt; // total value of outstanding bonds; used for pricing\n    uint public lastDecay; // reference block for debt decay\n\n\n\n\n    /* ======== STRUCTS ======== */\n\n    // Info for creating new bonds\n    struct Terms {\n        uint controlVariable; // scaling variable for price\n        uint vestingTerm; // in blocks\n        uint minimumPrice; // vs principle value\n        uint maxPayout; // in thousandths of a %. i.e. 500 = 0.5%\n        uint fee; // as % of bond payout, in hundreths. ( 500 = 5% = 0.05 for every 1 paid)\n        uint maxDebt; // 9 decimal debt ratio, max % total supply created as debt\n    }\n\n    // Info for bond holder\n    struct Bond {\n        uint payout; // OHM remaining to be paid\n        uint vesting; // Blocks left to vest\n        uint lastBlock; // Last interaction\n        uint pricePaid; // In DAI, for front end viewing\n    }\n\n    // Info for incremental adjustments to control variable \n    struct Adjust {\n        bool add; // addition or subtraction\n        uint rate; // increment\n        uint target; // BCV when adjustment finished\n        uint buffer; // minimum length (in blocks) between adjustments\n        uint lastBlock; // block when last adjustment made\n    }\n\n\n\n\n    /* ======== INITIALIZATION ======== */\n\n    constructor ( \n        address _OHM,\n        address _principle,\n        address _treasury, \n        address _DAO, \n        address _bondCalculator\n    ) {\n        require( _OHM != address(0) );\n        OHM = _OHM;\n        require( _principle != address(0) );\n        principle = _principle;\n        require( _treasury != address(0) );\n        treasury = _treasury;\n        require( _DAO != address(0) );\n        DAO = _DAO;\n        // bondCalculator should be address(0) if not LP bond\n        bondCalculator = _bondCalculator;\n        isLiquidityBond = ( _bondCalculator != address(0) );\n    }\n\n    /**\n     *  @notice initializes bond parameters\n     *  @param _controlVariable uint\n     *  @param _vestingTerm uint\n     *  @param _minimumPrice uint\n     *  @param _maxPayout uint\n     *  @param _fee uint\n     *  @param _maxDebt uint\n     *  @param _initialDebt uint\n     */\n    function initializeBondTerms( \n        uint _controlVariable, \n        uint _vestingTerm,\n        uint _minimumPrice,\n        uint _maxPayout,\n        uint _fee,\n        uint _maxDebt,\n        uint _initialDebt\n    ) external onlyManager() {\n        require( terms.controlVariable == 0, \"Bonds must be initialized from 0\" );\n        terms = Terms ({\n            controlVariable: _controlVariable,\n            vestingTerm: _vestingTerm,\n            minimumPrice: _minimumPrice,\n            maxPayout: _maxPayout,\n            fee: _fee,\n            maxDebt: _maxDebt\n        });\n        totalDebt = _initialDebt;\n        lastDecay = block.number;\n    }\n\n\n\n    \n    /* ======== POLICY FUNCTIONS ======== */\n\n    enum PARAMETER { VESTING, PAYOUT, FEE, DEBT }\n    /**\n     *  @notice set parameters for new bonds\n     *  @param _parameter PARAMETER\n     *  @param _input uint\n     */\n    function setBondTerms ( PARAMETER _parameter, uint _input ) external onlyManager() {\n        if ( _parameter == PARAMETER.VESTING ) { // 0\n            require( _input >= 10000, \"Vesting must be longer than 36 hours\" );\n            terms.vestingTerm = _input;\n        } else if ( _parameter == PARAMETER.PAYOUT ) { // 1\n            require( _input <= 1000, \"Payout cannot be above 1 percent\" );\n            terms.maxPayout = _input;\n        } else if ( _parameter == PARAMETER.FEE ) { // 2\n            require( _input <= 10000, \"DAO fee cannot exceed payout\" );\n            terms.fee = _input;\n        } else if ( _parameter == PARAMETER.DEBT ) { // 3\n            terms.maxDebt = _input;\n        }\n    }\n\n    /**\n     *  @notice set control variable adjustment\n     *  @param _addition bool\n     *  @param _increment uint\n     *  @param _target uint\n     *  @param _buffer uint\n     */\n    function setAdjustment ( \n        bool _addition,\n        uint _increment, \n        uint _target,\n        uint _buffer \n    ) external onlyManager() {\n        require( _increment <= terms.controlVariable.mul( 25 ).div( 1000 ), \"Increment too large\" );\n\n        adjustment = Adjust({\n            add: _addition,\n            rate: _increment,\n            target: _target,\n            buffer: _buffer,\n            lastBlock: block.number\n        });\n    }\n\n    /**\n     *  @notice set contract for auto stake\n     *  @param _staking address\n     *  @param _helper bool\n     */\n    function setStaking( address _staking, bool _helper ) external onlyManager() {\n        require( _staking != address(0) );\n        if ( _helper ) {\n            useHelper = true;\n            stakingHelper = _staking;\n        } else {\n            useHelper = false;\n            staking = _staking;\n        }\n    }\n\n\n    \n\n    /* ======== USER FUNCTIONS ======== */\n\n    /**\n     *  @notice deposit bond\n     *  @param _amount uint\n     *  @param _maxPrice uint\n     *  @param _depositor address\n     *  @return uint\n     */\n    function deposit( \n        uint _amount, \n        uint _maxPrice,\n        address _depositor\n    ) external returns ( uint ) {\n        require( _depositor != address(0), \"Invalid address\" );\n\n        decayDebt();\n        require( totalDebt <= terms.maxDebt, \"Max capacity reached\" );\n        \n        uint priceInUSD = bondPriceInUSD(); // Stored in bond info\n        uint nativePrice = _bondPrice();\n\n        require( _maxPrice >= nativePrice, \"Slippage limit: more than max price\" ); // slippage protection\n\n        uint value = ITreasury( treasury ).valueOf( principle, _amount );\n        uint payout = payoutFor( value ); // payout to bonder is computed\n\n        require( payout >= 10000000, \"Bond too small\" ); // must be > 0.01 OHM ( underflow protection )\n        require( payout <= maxPayout(), \"Bond too large\"); // size protection because there is no slippage\n\n        // profits are calculated\n        uint fee = payout.mul( terms.fee ).div( 10000 );\n        uint profit = value.sub( payout ).sub( fee );\n\n        /**\n            principle is transferred in\n            approved and\n            deposited into the treasury, returning (_amount - profit) OHM\n         */\n        IERC20( principle ).safeTransferFrom( msg.sender, address(this), _amount );\n        IERC20( principle ).approve( address( treasury ), _amount );\n        ITreasury( treasury ).deposit( _amount, principle, profit );\n        \n        if ( fee != 0 ) { // fee is transferred to dao \n            IERC20( OHM ).safeTransfer( DAO, fee ); \n        }\n        \n        // total debt is increased\n        totalDebt = totalDebt.add( value ); \n                \n        // depositor info is stored\n        bondInfo[ _depositor ] = Bond({ \n            payout: bondInfo[ _depositor ].payout.add( payout ),\n            vesting: terms.vestingTerm,\n            lastBlock: block.number,\n            pricePaid: priceInUSD\n        });\n\n        // indexed events are emitted\n        emit BondCreated( _amount, payout, block.number.add( terms.vestingTerm ), priceInUSD );\n        emit BondPriceChanged( bondPriceInUSD(), _bondPrice(), debtRatio() );\n\n        adjust(); // control variable is adjusted\n        return payout; \n    }\n\n    /** \n     *  @notice redeem bond for user\n     *  @param _recipient address\n     *  @param _stake bool\n     *  @return uint\n     */ \n    function redeem( address _recipient, bool _stake ) external returns ( uint ) {        \n        Bond memory info = bondInfo[ _recipient ];\n        uint percentVested = percentVestedFor( _recipient ); // (blocks since last interaction / vesting term remaining)\n\n        if ( percentVested >= 10000 ) { // if fully vested\n            delete bondInfo[ _recipient ]; // delete user info\n            emit BondRedeemed( _recipient, info.payout, 0 ); // emit bond data\n            return stakeOrSend( _recipient, _stake, info.payout ); // pay user everything due\n\n        } else { // if unfinished\n            // calculate payout vested\n            uint payout = info.payout.mul( percentVested ).div( 10000 );\n\n            // store updated deposit info\n            bondInfo[ _recipient ] = Bond({\n                payout: info.payout.sub( payout ),\n                vesting: info.vesting.sub( block.number.sub( info.lastBlock ) ),\n                lastBlock: block.number,\n                pricePaid: info.pricePaid\n            });\n\n            emit BondRedeemed( _recipient, payout, bondInfo[ _recipient ].payout );\n            return stakeOrSend( _recipient, _stake, payout );\n        }\n    }\n\n\n\n    \n    /* ======== INTERNAL HELPER FUNCTIONS ======== */\n\n    /**\n     *  @notice allow user to stake payout automatically\n     *  @param _stake bool\n     *  @param _amount uint\n     *  @return uint\n     */\n    function stakeOrSend( address _recipient, bool _stake, uint _amount ) internal returns ( uint ) {\n        if ( !_stake ) { // if user does not want to stake\n            IERC20( OHM ).transfer( _recipient, _amount ); // send payout\n        } else { // if user wants to stake\n            if ( useHelper ) { // use if staking warmup is 0\n                IERC20( OHM ).approve( stakingHelper, _amount );\n                IStakingHelper( stakingHelper ).stake( _amount, _recipient );\n            } else {\n                IERC20( OHM ).approve( staking, _amount );\n                IStaking( staking ).stake( _amount, _recipient );\n            }\n        }\n        return _amount;\n    }\n\n    /**\n     *  @notice makes incremental adjustment to control variable\n     */\n    function adjust() internal {\n        uint blockCanAdjust = adjustment.lastBlock.add( adjustment.buffer );\n        if( adjustment.rate != 0 && block.number >= blockCanAdjust ) {\n            uint initial = terms.controlVariable;\n            if ( adjustment.add ) {\n                terms.controlVariable = terms.controlVariable.add( adjustment.rate );\n                if ( terms.controlVariable >= adjustment.target ) {\n                    adjustment.rate = 0;\n                }\n            } else {\n                terms.controlVariable = terms.controlVariable.sub( adjustment.rate );\n                if ( terms.controlVariable <= adjustment.target ) {\n                    adjustment.rate = 0;\n                }\n            }\n            adjustment.lastBlock = block.number;\n            emit ControlVariableAdjustment( initial, terms.controlVariable, adjustment.rate, adjustment.add );\n        }\n    }\n\n    /**\n     *  @notice reduce total debt\n     */\n    function decayDebt() internal {\n        totalDebt = totalDebt.sub( debtDecay() );\n        lastDecay = block.number;\n    }\n\n\n\n\n    /* ======== VIEW FUNCTIONS ======== */\n\n    /**\n     *  @notice determine maximum bond size\n     *  @return uint\n     */\n    function maxPayout() public view returns ( uint ) {\n        return IERC20( OHM ).totalSupply().mul( terms.maxPayout ).div( 100000 );\n    }\n\n    /**\n     *  @notice calculate interest due for new bond\n     *  @param _value uint\n     *  @return uint\n     */\n    function payoutFor( uint _value ) public view returns ( uint ) {\n        return FixedPoint.fraction( _value, bondPrice() ).decode112with18().div( 1e16 );\n    }\n\n\n    /**\n     *  @notice calculate current bond premium\n     *  @return price_ uint\n     */\n    function bondPrice() public view returns ( uint price_ ) {        \n        price_ = terms.controlVariable.mul( debtRatio() ).add( 1000000000 ).div( 1e7 );\n        if ( price_ < terms.minimumPrice ) {\n            price_ = terms.minimumPrice;\n        }\n    }\n\n    /**\n     *  @notice calculate current bond price and remove floor if above\n     *  @return price_ uint\n     */\n    function _bondPrice() internal returns ( uint price_ ) {\n        price_ = terms.controlVariable.mul( debtRatio() ).add( 1000000000 ).div( 1e7 );\n        if ( price_ < terms.minimumPrice ) {\n            price_ = terms.minimumPrice;        \n        } else if ( terms.minimumPrice != 0 ) {\n            terms.minimumPrice = 0;\n        }\n    }\n\n    /**\n     *  @notice converts bond price to DAI value\n     *  @return price_ uint\n     */\n    function bondPriceInUSD() public view returns ( uint price_ ) {\n        if( isLiquidityBond ) {\n            price_ = bondPrice().mul( IBondCalculator( bondCalculator ).markdown( principle ) ).div( 100 );\n        } else {\n            price_ = bondPrice().mul( 10 ** IERC20( principle ).decimals() ).div( 100 );\n        }\n    }\n\n\n    /**\n     *  @notice calculate current ratio of debt to OHM supply\n     *  @return debtRatio_ uint\n     */\n    function debtRatio() public view returns ( uint debtRatio_ ) {   \n        uint supply = IERC20( OHM ).totalSupply();\n        debtRatio_ = FixedPoint.fraction( \n            currentDebt().mul( 1e9 ), \n            supply\n        ).decode112with18().div( 1e18 );\n    }\n\n    /**\n     *  @notice debt ratio in same terms for reserve or liquidity bonds\n     *  @return uint\n     */\n    function standardizedDebtRatio() external view returns ( uint ) {\n        if ( isLiquidityBond ) {\n            return debtRatio().mul( IBondCalculator( bondCalculator ).markdown( principle ) ).div( 1e9 );\n        } else {\n            return debtRatio();\n        }\n    }\n\n    /**\n     *  @notice calculate debt factoring in decay\n     *  @return uint\n     */\n    function currentDebt() public view returns ( uint ) {\n        return totalDebt.sub( debtDecay() );\n    }\n\n    /**\n     *  @notice amount to decay total debt by\n     *  @return decay_ uint\n     */\n    function debtDecay() public view returns ( uint decay_ ) {\n        uint blocksSinceLast = block.number.sub( lastDecay );\n        decay_ = totalDebt.mul( blocksSinceLast ).div( terms.vestingTerm );\n        if ( decay_ > totalDebt ) {\n            decay_ = totalDebt;\n        }\n    }\n\n\n    /**\n     *  @notice calculate how far into vesting a depositor is\n     *  @param _depositor address\n     *  @return percentVested_ uint\n     */\n    function percentVestedFor( address _depositor ) public view returns ( uint percentVested_ ) {\n        Bond memory bond = bondInfo[ _depositor ];\n        uint blocksSinceLast = block.number.sub( bond.lastBlock );\n        uint vesting = bond.vesting;\n\n        if ( vesting > 0 ) {\n            percentVested_ = blocksSinceLast.mul( 10000 ).div( vesting );\n        } else {\n            percentVested_ = 0;\n        }\n    }\n\n    /**\n     *  @notice calculate amount of OHM available for claim by depositor\n     *  @param _depositor address\n     *  @return pendingPayout_ uint\n     */\n    function pendingPayoutFor( address _depositor ) external view returns ( uint pendingPayout_ ) {\n        uint percentVested = percentVestedFor( _depositor );\n        uint payout = bondInfo[ _depositor ].payout;\n\n        if ( percentVested >= 10000 ) {\n            pendingPayout_ = payout;\n        } else {\n            pendingPayout_ = payout.mul( percentVested ).div( 10000 );\n        }\n    }\n\n\n\n\n    /* ======= AUXILLIARY ======= */\n\n    /**\n     *  @notice allow anyone to send lost tokens (excluding principle or OHM) to the DAO\n     *  @return bool\n     */\n    function recoverLostToken( address _token ) external returns ( bool ) {\n        require( _token != OHM );\n        require( _token != principle );\n        IERC20( _token ).safeTransfer( DAO, IERC20( _token ).balanceOf( address(this) ) );\n        return true;\n    }\n}",
  "sourcePath": "/mnt/d/Repos/klimadao-contracts/contracts/regular/KlimaBondDepository_Regular.sol",
  "compiler": {
    "name": "solc",
    "version": "0.8.4+commit.c7e474f2.Emscripten.clang"
  },
  "schemaVersion": "3.4.1",
  "updatedAt": "2021-08-05T17:46:38.529Z",
  "devdoc": {
    "kind": "dev",
    "methods": {
      "bondPrice()": {
        "returns": {
          "price_": "uint"
        }
      },
      "bondPriceInUSD()": {
        "returns": {
          "price_": "uint"
        }
      },
      "currentDebt()": {
        "returns": {
          "_0": "uint"
        }
      },
      "debtDecay()": {
        "returns": {
          "decay_": "uint"
        }
      },
      "debtRatio()": {
        "returns": {
          "debtRatio_": "uint"
        }
      },
      "deposit(uint256,uint256,address)": {
        "params": {
          "_amount": "uint",
          "_depositor": "address",
          "_maxPrice": "uint"
        },
        "returns": {
          "_0": "uint"
        }
      },
      "initializeBondTerms(uint256,uint256,uint256,uint256,uint256,uint256,uint256)": {
        "params": {
          "_controlVariable": "uint",
          "_fee": "uint",
          "_initialDebt": "uint",
          "_maxDebt": "uint",
          "_maxPayout": "uint",
          "_minimumPrice": "uint",
          "_vestingTerm": "uint"
        }
      },
      "maxPayout()": {
        "returns": {
          "_0": "uint"
        }
      },
      "payoutFor(uint256)": {
        "params": {
          "_value": "uint"
        },
        "returns": {
          "_0": "uint"
        }
      },
      "pendingPayoutFor(address)": {
        "params": {
          "_depositor": "address"
        },
        "returns": {
          "pendingPayout_": "uint"
        }
      },
      "percentVestedFor(address)": {
        "params": {
          "_depositor": "address"
        },
        "returns": {
          "percentVested_": "uint"
        }
      },
      "recoverLostToken(address)": {
        "returns": {
          "_0": "bool"
        }
      },
      "redeem(address,bool)": {
        "params": {
          "_recipient": "address",
          "_stake": "bool"
        },
        "returns": {
          "_0": "uint"
        }
      },
      "setAdjustment(bool,uint256,uint256,uint256)": {
        "params": {
          "_addition": "bool",
          "_buffer": "uint",
          "_increment": "uint",
          "_target": "uint"
        }
      },
      "setBondTerms(uint8,uint256)": {
        "params": {
          "_input": "uint",
          "_parameter": "PARAMETER"
        }
      },
      "setStaking(address,bool)": {
        "params": {
          "_helper": "bool",
          "_staking": "address"
        }
      },
      "standardizedDebtRatio()": {
        "returns": {
          "_0": "uint"
        }
      }
    },
    "version": 1
  },
  "userdoc": {
    "kind": "user",
    "methods": {
      "bondPrice()": {
        "notice": "calculate current bond premium"
      },
      "bondPriceInUSD()": {
        "notice": "converts bond price to DAI value"
      },
      "currentDebt()": {
        "notice": "calculate debt factoring in decay"
      },
      "debtDecay()": {
        "notice": "amount to decay total debt by"
      },
      "debtRatio()": {
        "notice": "calculate current ratio of debt to OHM supply"
      },
      "deposit(uint256,uint256,address)": {
        "notice": "deposit bond"
      },
      "initializeBondTerms(uint256,uint256,uint256,uint256,uint256,uint256,uint256)": {
        "notice": "initializes bond parameters"
      },
      "maxPayout()": {
        "notice": "determine maximum bond size"
      },
      "payoutFor(uint256)": {
        "notice": "calculate interest due for new bond"
      },
      "pendingPayoutFor(address)": {
        "notice": "calculate amount of OHM available for claim by depositor"
      },
      "percentVestedFor(address)": {
        "notice": "calculate how far into vesting a depositor is"
      },
      "recoverLostToken(address)": {
        "notice": "allow anyone to send lost tokens (excluding principle or OHM) to the DAO"
      },
      "redeem(address,bool)": {
        "notice": "redeem bond for user"
      },
      "setAdjustment(bool,uint256,uint256,uint256)": {
        "notice": "set control variable adjustment"
      },
      "setBondTerms(uint8,uint256)": {
        "notice": "set parameters for new bonds"
      },
      "setStaking(address,bool)": {
        "notice": "set contract for auto stake"
      },
      "standardizedDebtRatio()": {
        "notice": "debt ratio in same terms for reserve or liquidity bonds"
      }
    },
    "version": 1
  }
}